{
  "contractName": "Like",
  "abi": [
    {
      "anonymous": false,
      "inputs": [
        {
          "indexed": false,
          "internalType": "address",
          "name": "user",
          "type": "address"
        },
        {
          "indexed": false,
          "internalType": "bool",
          "name": "liked",
          "type": "bool"
        }
      ],
      "name": "LikeEvent",
      "type": "event"
    },
    {
      "inputs": [
        {
          "internalType": "address",
          "name": "",
          "type": "address"
        }
      ],
      "name": "liked",
      "outputs": [
        {
          "internalType": "bool",
          "name": "",
          "type": "bool"
        }
      ],
      "stateMutability": "view",
      "type": "function",
      "constant": true
    },
    {
      "inputs": [
        {
          "internalType": "uint256",
          "name": "",
          "type": "uint256"
        }
      ],
      "name": "users",
      "outputs": [
        {
          "internalType": "address",
          "name": "",
          "type": "address"
        }
      ],
      "stateMutability": "view",
      "type": "function",
      "constant": true
    },
    {
      "inputs": [],
      "name": "like",
      "outputs": [],
      "stateMutability": "nonpayable",
      "type": "function"
    },
    {
      "inputs": [],
      "name": "unlike",
      "outputs": [],
      "stateMutability": "nonpayable",
      "type": "function"
    },
    {
      "inputs": [],
      "name": "count",
      "outputs": [
        {
          "internalType": "uint256",
          "name": "",
          "type": "uint256"
        }
      ],
      "stateMutability": "view",
      "type": "function",
      "constant": true
    }
  ],
  "bytecode": "0x608060405234801561001057600080fd5b506109a6806100206000396000f3fe608060405234801561001057600080fd5b50600436106100575760003560e01c806306661abd1461005c578063365b98b21461007a578063948e7ada146100aa578063a523b88a146100da578063b27d0d75146100e4575b600080fd5b6100646100ee565b60405161007191906105bd565b60405180910390f35b610094600480360381019061008f9190610609565b6100fb565b6040516100a19190610677565b60405180910390f35b6100c460048036038101906100bf91906106be565b61013a565b6040516100d19190610706565b60405180910390f35b6100e261015a565b005b6100ec610282565b005b6000600180549050905090565b6001818154811061010b57600080fd5b906000526020600020016000915054906101000a900473ffffffffffffffffffffffffffffffffffffffff1681565b60006020528060005260406000206000915054906101000a900460ff1681565b6000803373ffffffffffffffffffffffffffffffffffffffff1673ffffffffffffffffffffffffffffffffffffffff16815260200190815260200160002060009054906101000a900460ff16156101e6576040517f08c379a00000000000000000000000000000000000000000000000000000000081526004016101dd9061077e565b60405180910390fd5b60016000803373ffffffffffffffffffffffffffffffffffffffff1673ffffffffffffffffffffffffffffffffffffffff16815260200190815260200160002060006101000a81548160ff021916908315150217905550610246336103a0565b7f8637670648c7cc8a5c3be6b1bf2729bf318f43f1af937b2efb7da6313bf07c1333600160405161027892919061079e565b60405180910390a1565b6000803373ffffffffffffffffffffffffffffffffffffffff1673ffffffffffffffffffffffffffffffffffffffff16815260200190815260200160002060009054906101000a900460ff1661030d576040517f08c379a000000000000000000000000000000000000000000000000000000000815260040161030490610813565b60405180910390fd5b6000803373ffffffffffffffffffffffffffffffffffffffff1673ffffffffffffffffffffffffffffffffffffffff16815260200190815260200160002060006101000a81549060ff021916905561036433610406565b7f8637670648c7cc8a5c3be6b1bf2729bf318f43f1af937b2efb7da6313bf07c1333600060405161039692919061079e565b60405180910390a1565b6001819080600181540180825580915050600190039060005260206000200160009091909190916101000a81548173ffffffffffffffffffffffffffffffffffffffff021916908373ffffffffffffffffffffffffffffffffffffffff16021790555050565b6000805b6001808054905061041b9190610862565b811015610558578273ffffffffffffffffffffffffffffffffffffffff166001828154811061044d5761044c610896565b5b9060005260206000200160009054906101000a900473ffffffffffffffffffffffffffffffffffffffff1673ffffffffffffffffffffffffffffffffffffffff160361049857600191505b811561054557600180826104ac91906108c5565b815481106104bd576104bc610896565b5b9060005260206000200160009054906101000a900473ffffffffffffffffffffffffffffffffffffffff16600182815481106104fc576104fb610896565b5b9060005260206000200160006101000a81548173ffffffffffffffffffffffffffffffffffffffff021916908373ffffffffffffffffffffffffffffffffffffffff1602179055505b8080610550906108f9565b91505061040a565b50600180548061056b5761056a610941565b5b6001900381819060005260206000200160006101000a81549073ffffffffffffffffffffffffffffffffffffffff021916905590555050565b6000819050919050565b6105b7816105a4565b82525050565b60006020820190506105d260008301846105ae565b92915050565b600080fd5b6105e6816105a4565b81146105f157600080fd5b50565b600081359050610603816105dd565b92915050565b60006020828403121561061f5761061e6105d8565b5b600061062d848285016105f4565b91505092915050565b600073ffffffffffffffffffffffffffffffffffffffff82169050919050565b600061066182610636565b9050919050565b61067181610656565b82525050565b600060208201905061068c6000830184610668565b92915050565b61069b81610656565b81146106a657600080fd5b50565b6000813590506106b881610692565b92915050565b6000602082840312156106d4576106d36105d8565b5b60006106e2848285016106a9565b91505092915050565b60008115159050919050565b610700816106eb565b82525050565b600060208201905061071b60008301846106f7565b92915050565b600082825260208201905092915050565b7f6f6e6c79206c696b65206f6e6365000000000000000000000000000000000000600082015250565b6000610768600e83610721565b915061077382610732565b602082019050919050565b600060208201905081810360008301526107978161075b565b9050919050565b60006040820190506107b36000830185610668565b6107c060208301846106f7565b9392505050565b7f6e6f206e65656420756e6c696b65000000000000000000000000000000000000600082015250565b60006107fd600e83610721565b9150610808826107c7565b602082019050919050565b6000602082019050818103600083015261082c816107f0565b9050919050565b7f4e487b7100000000000000000000000000000000000000000000000000000000600052601160045260246000fd5b600061086d826105a4565b9150610878836105a4565b92508282039050818111156108905761088f610833565b5b92915050565b7f4e487b7100000000000000000000000000000000000000000000000000000000600052603260045260246000fd5b60006108d0826105a4565b91506108db836105a4565b92508282019050808211156108f3576108f2610833565b5b92915050565b6000610904826105a4565b91507fffffffffffffffffffffffffffffffffffffffffffffffffffffffffffffffff820361093657610935610833565b5b600182019050919050565b7f4e487b7100000000000000000000000000000000000000000000000000000000600052603160045260246000fdfea26469706673582212205ddfa7a97efe3b5bd01cda0877100367e6d920efcc8928a0ea846ec0af39950b64736f6c63430008110033",
  "immutableReferences": {},
  "source": "// SPDX-License-Identifier: MIT\n\npragma solidity 0.8.17;\n\ncontract Like {\n    mapping(address => bool) public liked;\n    address[] public users;\n\n    event LikeEvent(address user, bool liked);\n\n    function like() public {\n        require(!liked[msg.sender], \"only like once\");\n\n        liked[msg.sender] = true;\n        add(msg.sender);\n\n        emit LikeEvent(msg.sender, true);\n    }\n\n    function unlike() public {\n        require(liked[msg.sender], \"no need unlike\");\n        delete liked[msg.sender];\n        remove(msg.sender);\n\n        emit LikeEvent(msg.sender, false);\n    }\n\n    function count() public view returns (uint256) {\n        return users.length;\n    }\n\n    function add(address addr) private {\n        users.push(addr);\n    }\n\n    function remove(address addr) private\n    {\n        bool start = false;\n        for (uint256 i = 0; i < users.length - 1; i++) {\n            if (users[i] == addr) {\n                start = true;\n            }\n            if (start) {\n                users[i] = users[i + 1];\n            }\n        }\n        users.pop();\n    }\n}",
  "sourcePath": "/home/hanlixin/apps/web3-test/contracts/Like.sol",
  "compiler": {
    "name": "solc",
    "version": "0.8.17+commit.8df45f5f.Emscripten.clang"
  },
  "schemaVersion": "3.4.10",
  "updatedAt": "2022-11-03T06:42:02.480Z",
  "networkType": "ethereum",
  "devdoc": {
    "kind": "dev",
    "methods": {},
    "version": 1
  },
  "userdoc": {
    "kind": "user",
    "methods": {},
    "version": 1
  }
}