{
  "contractName": "Pay",
  "abi": [
    {
      "inputs": [
        {
          "internalType": "address",
          "name": "o",
          "type": "address"
        }
      ],
      "stateMutability": "nonpayable",
      "type": "constructor"
    },
    {
      "anonymous": false,
      "inputs": [
        {
          "indexed": false,
          "internalType": "address",
          "name": "addr",
          "type": "address"
        },
        {
          "indexed": false,
          "internalType": "uint256",
          "name": "value",
          "type": "uint256"
        },
        {
          "indexed": false,
          "internalType": "bool",
          "name": "inOrOut",
          "type": "bool"
        }
      ],
      "name": "PayTransfer",
      "type": "event"
    },
    {
      "inputs": [
        {
          "internalType": "address",
          "name": "",
          "type": "address"
        }
      ],
      "name": "balances",
      "outputs": [
        {
          "internalType": "uint256",
          "name": "",
          "type": "uint256"
        }
      ],
      "stateMutability": "view",
      "type": "function",
      "constant": true
    },
    {
      "inputs": [
        {
          "internalType": "uint256",
          "name": "",
          "type": "uint256"
        }
      ],
      "name": "users",
      "outputs": [
        {
          "internalType": "address",
          "name": "",
          "type": "address"
        }
      ],
      "stateMutability": "view",
      "type": "function",
      "constant": true
    },
    {
      "stateMutability": "payable",
      "type": "receive",
      "payable": true
    },
    {
      "inputs": [],
      "name": "count",
      "outputs": [
        {
          "internalType": "uint256",
          "name": "",
          "type": "uint256"
        }
      ],
      "stateMutability": "view",
      "type": "function",
      "constant": true
    },
    {
      "inputs": [],
      "name": "pay",
      "outputs": [],
      "stateMutability": "payable",
      "type": "function",
      "payable": true
    },
    {
      "inputs": [],
      "name": "refund",
      "outputs": [],
      "stateMutability": "nonpayable",
      "type": "function"
    },
    {
      "inputs": [],
      "name": "withdraw",
      "outputs": [],
      "stateMutability": "nonpayable",
      "type": "function"
    },
    {
      "inputs": [],
      "name": "rollback",
      "outputs": [],
      "stateMutability": "nonpayable",
      "type": "function"
    }
  ],
  "bytecode": "0x60806040523480156200001157600080fd5b506040516200115d3803806200115d8339818101604052810190620000379190620000e9565b80600260006101000a81548173ffffffffffffffffffffffffffffffffffffffff021916908373ffffffffffffffffffffffffffffffffffffffff160217905550506200011b565b600080fd5b600073ffffffffffffffffffffffffffffffffffffffff82169050919050565b6000620000b18262000084565b9050919050565b620000c381620000a4565b8114620000cf57600080fd5b50565b600081519050620000e381620000b8565b92915050565b6000602082840312156200010257620001016200007f565b5b60006200011284828501620000d2565b91505092915050565b611032806200012b6000396000f3fe6080604052600436106100745760003560e01c8063365b98b21161004e578063365b98b2146100fa5780633ccfd60b14610137578063590e1ae31461014e5780639afd9d781461016557610083565b806306661abd146100885780631b9265b8146100b357806327e235e3146100bd57610083565b366100835761008161017c565b005b600080fd5b34801561009457600080fd5b5061009d6102c3565b6040516100aa9190610bea565b60405180910390f35b6100bb6102d0565b005b3480156100c957600080fd5b506100e460048036038101906100df9190610c68565b6102da565b6040516100f19190610bea565b60405180910390f35b34801561010657600080fd5b50610121600480360381019061011c9190610cc1565b6102f2565b60405161012e9190610cfd565b60405180910390f35b34801561014357600080fd5b5061014c610331565b005b34801561015a57600080fd5b50610163610483565b005b34801561017157600080fd5b5061017a610618565b005b600034116101bf576040517f08c379a00000000000000000000000000000000000000000000000000000000081526004016101b690610d75565b60405180910390fd5b346000803373ffffffffffffffffffffffffffffffffffffffff1673ffffffffffffffffffffffffffffffffffffffff168152602001908152602001600020600082825461020d9190610dc4565b9250508190555061021d33610895565b610285576001339080600181540180825580915050600190039060005260206000200160009091909190916101000a81548173ffffffffffffffffffffffffffffffffffffffff021916908373ffffffffffffffffffffffffffffffffffffffff1602179055505b7f9b332a44be7ebd478e904d9408c66789ad305e10b1c79d09ea3468057e50d3ef333460016040516102b993929190610e13565b60405180910390a1565b6000600180549050905090565b6102d861017c565b565b60006020528060005260406000206000915090505481565b6001818154811061030257600080fd5b906000526020600020016000915054906101000a900473ffffffffffffffffffffffffffffffffffffffff1681565b3373ffffffffffffffffffffffffffffffffffffffff16600260009054906101000a900473ffffffffffffffffffffffffffffffffffffffff1673ffffffffffffffffffffffffffffffffffffffff161461038b57600080fd5b6000479050600081116103d3576040517f08c379a00000000000000000000000000000000000000000000000000000000081526004016103ca90610e96565b60405180910390fd5b600260009054906101000a900473ffffffffffffffffffffffffffffffffffffffff1673ffffffffffffffffffffffffffffffffffffffff166108fc829081150290604051600060405180830381858888f1935050505015801561043b573d6000803e3d6000fd5b50610444610943565b7f9b332a44be7ebd478e904d9408c66789ad305e10b1c79d09ea3468057e50d3ef3382600060405161047893929190610e13565b60405180910390a150565b60008060003373ffffffffffffffffffffffffffffffffffffffff1673ffffffffffffffffffffffffffffffffffffffff1681526020019081526020016000205411610504576040517f08c379a00000000000000000000000000000000000000000000000000000000081526004016104fb90610f02565b60405180910390fd5b60008060003373ffffffffffffffffffffffffffffffffffffffff1673ffffffffffffffffffffffffffffffffffffffff1681526020019081526020016000205490503373ffffffffffffffffffffffffffffffffffffffff166108fc829081150290604051600060405180830381858888f1935050505015801561058d573d6000803e3d6000fd5b506000803373ffffffffffffffffffffffffffffffffffffffff1673ffffffffffffffffffffffffffffffffffffffff168152602001908152602001600020600090556105d9336109f5565b7f9b332a44be7ebd478e904d9408c66789ad305e10b1c79d09ea3468057e50d3ef3382600060405161060d93929190610e13565b60405180910390a150565b3373ffffffffffffffffffffffffffffffffffffffff16600260009054906101000a900473ffffffffffffffffffffffffffffffffffffffff1673ffffffffffffffffffffffffffffffffffffffff161461067257600080fd5b60005b60018054905081101561088a576001818154811061069657610695610f22565b5b9060005260206000200160009054906101000a900473ffffffffffffffffffffffffffffffffffffffff1673ffffffffffffffffffffffffffffffffffffffff166108fc600080600185815481106106f1576106f0610f22565b5b9060005260206000200160009054906101000a900473ffffffffffffffffffffffffffffffffffffffff1673ffffffffffffffffffffffffffffffffffffffff1673ffffffffffffffffffffffffffffffffffffffff168152602001908152602001600020549081150290604051600060405180830381858888f19350505050158015610782573d6000803e3d6000fd5b507f9b332a44be7ebd478e904d9408c66789ad305e10b1c79d09ea3468057e50d3ef600182815481106107b8576107b7610f22565b5b9060005260206000200160009054906101000a900473ffffffffffffffffffffffffffffffffffffffff16600080600185815481106107fa576107f9610f22565b5b9060005260206000200160009054906101000a900473ffffffffffffffffffffffffffffffffffffffff1673ffffffffffffffffffffffffffffffffffffffff1673ffffffffffffffffffffffffffffffffffffffff16815260200190815260200160002054600060405161087193929190610e13565b60405180910390a18061088390610f51565b9050610675565b50610893610943565b565b600080600090505b600180549050811015610938578273ffffffffffffffffffffffffffffffffffffffff16600182815481106108d5576108d4610f22565b5b9060005260206000200160009054906101000a900473ffffffffffffffffffffffffffffffffffffffff1673ffffffffffffffffffffffffffffffffffffffff160361092557600191505061093e565b808061093090610f51565b91505061089d565b50600090505b919050565b60005b6001805490508110156109e4576000806001838154811061096a57610969610f22565b5b9060005260206000200160009054906101000a900473ffffffffffffffffffffffffffffffffffffffff1673ffffffffffffffffffffffffffffffffffffffff1673ffffffffffffffffffffffffffffffffffffffff16815260200190815260200160002060009055806109dd90610f51565b9050610946565b50600160006109f39190610b93565b565b6000805b60018080549050610a0a9190610f99565b811015610b47578273ffffffffffffffffffffffffffffffffffffffff1660018281548110610a3c57610a3b610f22565b5b9060005260206000200160009054906101000a900473ffffffffffffffffffffffffffffffffffffffff1673ffffffffffffffffffffffffffffffffffffffff1603610a8757600191505b8115610b345760018082610a9b9190610dc4565b81548110610aac57610aab610f22565b5b9060005260206000200160009054906101000a900473ffffffffffffffffffffffffffffffffffffffff1660018281548110610aeb57610aea610f22565b5b9060005260206000200160006101000a81548173ffffffffffffffffffffffffffffffffffffffff021916908373ffffffffffffffffffffffffffffffffffffffff1602179055505b8080610b3f90610f51565b9150506109f9565b506001805480610b5a57610b59610fcd565b5b6001900381819060005260206000200160006101000a81549073ffffffffffffffffffffffffffffffffffffffff021916905590555050565b5080546000825590600052602060002090810190610bb19190610bb4565b50565b5b80821115610bcd576000816000905550600101610bb5565b5090565b6000819050919050565b610be481610bd1565b82525050565b6000602082019050610bff6000830184610bdb565b92915050565b600080fd5b600073ffffffffffffffffffffffffffffffffffffffff82169050919050565b6000610c3582610c0a565b9050919050565b610c4581610c2a565b8114610c5057600080fd5b50565b600081359050610c6281610c3c565b92915050565b600060208284031215610c7e57610c7d610c05565b5b6000610c8c84828501610c53565b91505092915050565b610c9e81610bd1565b8114610ca957600080fd5b50565b600081359050610cbb81610c95565b92915050565b600060208284031215610cd757610cd6610c05565b5b6000610ce584828501610cac565b91505092915050565b610cf781610c2a565b82525050565b6000602082019050610d126000830184610cee565b92915050565b600082825260208201905092915050565b7f7061792076616c7565206d757374203e30000000000000000000000000000000600082015250565b6000610d5f601183610d18565b9150610d6a82610d29565b602082019050919050565b60006020820190508181036000830152610d8e81610d52565b9050919050565b7f4e487b7100000000000000000000000000000000000000000000000000000000600052601160045260246000fd5b6000610dcf82610bd1565b9150610dda83610bd1565b9250828201905080821115610df257610df1610d95565b5b92915050565b60008115159050919050565b610e0d81610df8565b82525050565b6000606082019050610e286000830186610cee565b610e356020830185610bdb565b610e426040830184610e04565b949350505050565b7f746f74616c2062616c616e6365206d757374203e300000000000000000000000600082015250565b6000610e80601583610d18565b9150610e8b82610e4a565b602082019050919050565b60006020820190508181036000830152610eaf81610e73565b9050919050565b7f796f75722062616c616e6365206d757374203e30000000000000000000000000600082015250565b6000610eec601483610d18565b9150610ef782610eb6565b602082019050919050565b60006020820190508181036000830152610f1b81610edf565b9050919050565b7f4e487b7100000000000000000000000000000000000000000000000000000000600052603260045260246000fd5b6000610f5c82610bd1565b91507fffffffffffffffffffffffffffffffffffffffffffffffffffffffffffffffff8203610f8e57610f8d610d95565b5b600182019050919050565b6000610fa482610bd1565b9150610faf83610bd1565b9250828203905081811115610fc757610fc6610d95565b5b92915050565b7f4e487b7100000000000000000000000000000000000000000000000000000000600052603160045260246000fdfea264697066735822122016b63e9c2c89ab83448197f8771994db2f55acd0c6d4e0ce275fa4d45720ebb464736f6c63430008110033",
  "immutableReferences": {},
  "source": "// SPDX-License-Identifier: MIT\n\npragma solidity 0.8.17;\n\ncontract Pay {\n    mapping(address => uint256) public balances;\n    address[] public users;\n\n    address owner;\n\n    event PayTransfer(address addr, uint256 value, bool inOrOut);\n\n    constructor(address o) {\n        owner = o;\n    }\n\n    function count() public view returns (uint256) {\n        return users.length;\n    }\n\n    // address.transfer(value)\n    receive() external payable {\n        _pay();\n    }\n\n    // pay(value) transferbalance\n    // msg.valuebalance\n    function pay() public payable {\n        _pay();\n    }\n\n    function _pay() private {\n        require(msg.value > 0, \"pay value must >0\");\n        balances[msg.sender] += msg.value;\n        if (!exists(msg.sender)) {\n            users.push(msg.sender);\n        }\n\n        emit PayTransfer(msg.sender, msg.value, true);\n    }\n\n    // \n    function refund() public {\n        require(balances[msg.sender] > 0, \"your balance must >0\");\n\n        uint256 balance = balances[msg.sender];\n        payable(msg.sender).transfer(balance);\n\n        // update state\n        delete balances[msg.sender];\n        remove(msg.sender);\n\n        emit PayTransfer(msg.sender, balance, false);\n    }\n\n    // \n    function withdraw() public onlyOwner {\n        uint256 totalBalance = address(this).balance;\n        require(totalBalance > 0, \"total balance must >0\");\n        payable(owner).transfer(totalBalance);\n        clean();\n\n        emit PayTransfer(msg.sender, totalBalance, false);\n    }\n\n    // , gas\n    function rollback() public onlyOwner {\n        for (uint256 i = 0; i < users.length; ++i) {\n            payable(users[i]).transfer(balances[users[i]]);\n            emit PayTransfer(users[i], balances[users[i]], false);\n        }\n        clean();\n    }\n\n    function clean() private {\n        for (uint256 i = 0; i < users.length; ++i) {\n            delete balances[users[i]];\n        }\n        delete users;\n    }\n\n    function exists(address addr) private view returns (bool) {\n        for (uint256 i = 0; i < users.length; i++) {\n            if (users[i] == addr) {\n                return true;\n            }\n        }\n        return false;\n    }\n\n    function remove(address addr) private {\n        bool start = false;\n        for (uint256 i = 0; i < users.length - 1; i++) {\n            if (users[i] == addr) {\n                start = true;\n            }\n            if (start) {\n                users[i] = users[i + 1];\n            }\n        }\n        users.pop();\n    }\n\n    modifier onlyOwner() {\n        require(owner == msg.sender);\n        _;\n    }\n}\n",
  "sourcePath": "/home/hanlixin/apps/web3-test/contracts/Pay.sol",
  "compiler": {
    "name": "solc",
    "version": "0.8.17+commit.8df45f5f.Emscripten.clang"
  },
  "schemaVersion": "3.4.10",
  "updatedAt": "2022-11-03T06:43:28.792Z",
  "networkType": "ethereum",
  "devdoc": {
    "kind": "dev",
    "methods": {},
    "version": 1
  },
  "userdoc": {
    "kind": "user",
    "methods": {},
    "version": 1
  }
}